{
  "contractName": "PoktWorkshop",
  "abi": [
    {
      "inputs": [
        {
          "internalType": "string",
          "name": "_uri",
          "type": "string"
        },
        {
          "internalType": "address",
          "name": "workshop_owner",
          "type": "address"
        }
      ],
      "stateMutability": "nonpayable",
      "type": "constructor"
    },
    {
      "anonymous": false,
      "inputs": [
        {
          "indexed": true,
          "internalType": "address",
          "name": "account",
          "type": "address"
        },
        {
          "indexed": true,
          "internalType": "address",
          "name": "operator",
          "type": "address"
        },
        {
          "indexed": false,
          "internalType": "bool",
          "name": "approved",
          "type": "bool"
        }
      ],
      "name": "ApprovalForAll",
      "type": "event"
    },
    {
      "anonymous": false,
      "inputs": [
        {
          "indexed": true,
          "internalType": "bytes32",
          "name": "role",
          "type": "bytes32"
        },
        {
          "indexed": true,
          "internalType": "bytes32",
          "name": "previousAdminRole",
          "type": "bytes32"
        },
        {
          "indexed": true,
          "internalType": "bytes32",
          "name": "newAdminRole",
          "type": "bytes32"
        }
      ],
      "name": "RoleAdminChanged",
      "type": "event"
    },
    {
      "anonymous": false,
      "inputs": [
        {
          "indexed": true,
          "internalType": "bytes32",
          "name": "role",
          "type": "bytes32"
        },
        {
          "indexed": true,
          "internalType": "address",
          "name": "account",
          "type": "address"
        },
        {
          "indexed": true,
          "internalType": "address",
          "name": "sender",
          "type": "address"
        }
      ],
      "name": "RoleGranted",
      "type": "event"
    },
    {
      "anonymous": false,
      "inputs": [
        {
          "indexed": true,
          "internalType": "bytes32",
          "name": "role",
          "type": "bytes32"
        },
        {
          "indexed": true,
          "internalType": "address",
          "name": "account",
          "type": "address"
        },
        {
          "indexed": true,
          "internalType": "address",
          "name": "sender",
          "type": "address"
        }
      ],
      "name": "RoleRevoked",
      "type": "event"
    },
    {
      "anonymous": false,
      "inputs": [
        {
          "indexed": true,
          "internalType": "address",
          "name": "operator",
          "type": "address"
        },
        {
          "indexed": true,
          "internalType": "address",
          "name": "from",
          "type": "address"
        },
        {
          "indexed": true,
          "internalType": "address",
          "name": "to",
          "type": "address"
        },
        {
          "indexed": false,
          "internalType": "uint256[]",
          "name": "ids",
          "type": "uint256[]"
        },
        {
          "indexed": false,
          "internalType": "uint256[]",
          "name": "values",
          "type": "uint256[]"
        }
      ],
      "name": "TransferBatch",
      "type": "event"
    },
    {
      "anonymous": false,
      "inputs": [
        {
          "indexed": true,
          "internalType": "address",
          "name": "operator",
          "type": "address"
        },
        {
          "indexed": true,
          "internalType": "address",
          "name": "from",
          "type": "address"
        },
        {
          "indexed": true,
          "internalType": "address",
          "name": "to",
          "type": "address"
        },
        {
          "indexed": false,
          "internalType": "uint256",
          "name": "id",
          "type": "uint256"
        },
        {
          "indexed": false,
          "internalType": "uint256",
          "name": "value",
          "type": "uint256"
        }
      ],
      "name": "TransferSingle",
      "type": "event"
    },
    {
      "anonymous": false,
      "inputs": [
        {
          "indexed": false,
          "internalType": "string",
          "name": "value",
          "type": "string"
        },
        {
          "indexed": true,
          "internalType": "uint256",
          "name": "id",
          "type": "uint256"
        }
      ],
      "name": "URI",
      "type": "event"
    },
    {
      "inputs": [],
      "name": "DEFAULT_ADMIN_ROLE",
      "outputs": [
        {
          "internalType": "bytes32",
          "name": "",
          "type": "bytes32"
        }
      ],
      "stateMutability": "view",
      "type": "function",
      "constant": true
    },
    {
      "inputs": [],
      "name": "WORKSHOP_ROLE",
      "outputs": [
        {
          "internalType": "bytes32",
          "name": "",
          "type": "bytes32"
        }
      ],
      "stateMutability": "view",
      "type": "function",
      "constant": true
    },
    {
      "inputs": [
        {
          "internalType": "address",
          "name": "account",
          "type": "address"
        },
        {
          "internalType": "uint256",
          "name": "id",
          "type": "uint256"
        }
      ],
      "name": "balanceOf",
      "outputs": [
        {
          "internalType": "uint256",
          "name": "",
          "type": "uint256"
        }
      ],
      "stateMutability": "view",
      "type": "function",
      "constant": true
    },
    {
      "inputs": [
        {
          "internalType": "address[]",
          "name": "accounts",
          "type": "address[]"
        },
        {
          "internalType": "uint256[]",
          "name": "ids",
          "type": "uint256[]"
        }
      ],
      "name": "balanceOfBatch",
      "outputs": [
        {
          "internalType": "uint256[]",
          "name": "",
          "type": "uint256[]"
        }
      ],
      "stateMutability": "view",
      "type": "function",
      "constant": true
    },
    {
      "inputs": [
        {
          "internalType": "uint256",
          "name": "id",
          "type": "uint256"
        }
      ],
      "name": "exists",
      "outputs": [
        {
          "internalType": "bool",
          "name": "",
          "type": "bool"
        }
      ],
      "stateMutability": "view",
      "type": "function",
      "constant": true
    },
    {
      "inputs": [
        {
          "internalType": "bytes32",
          "name": "role",
          "type": "bytes32"
        }
      ],
      "name": "getRoleAdmin",
      "outputs": [
        {
          "internalType": "bytes32",
          "name": "",
          "type": "bytes32"
        }
      ],
      "stateMutability": "view",
      "type": "function",
      "constant": true
    },
    {
      "inputs": [
        {
          "internalType": "bytes32",
          "name": "role",
          "type": "bytes32"
        },
        {
          "internalType": "uint256",
          "name": "index",
          "type": "uint256"
        }
      ],
      "name": "getRoleMember",
      "outputs": [
        {
          "internalType": "address",
          "name": "",
          "type": "address"
        }
      ],
      "stateMutability": "view",
      "type": "function",
      "constant": true
    },
    {
      "inputs": [
        {
          "internalType": "bytes32",
          "name": "role",
          "type": "bytes32"
        }
      ],
      "name": "getRoleMemberCount",
      "outputs": [
        {
          "internalType": "uint256",
          "name": "",
          "type": "uint256"
        }
      ],
      "stateMutability": "view",
      "type": "function",
      "constant": true
    },
    {
      "inputs": [
        {
          "internalType": "bytes32",
          "name": "role",
          "type": "bytes32"
        },
        {
          "internalType": "address",
          "name": "account",
          "type": "address"
        }
      ],
      "name": "grantRole",
      "outputs": [],
      "stateMutability": "nonpayable",
      "type": "function"
    },
    {
      "inputs": [
        {
          "internalType": "bytes32",
          "name": "role",
          "type": "bytes32"
        },
        {
          "internalType": "address",
          "name": "account",
          "type": "address"
        }
      ],
      "name": "hasRole",
      "outputs": [
        {
          "internalType": "bool",
          "name": "",
          "type": "bool"
        }
      ],
      "stateMutability": "view",
      "type": "function",
      "constant": true
    },
    {
      "inputs": [
        {
          "internalType": "address",
          "name": "account",
          "type": "address"
        },
        {
          "internalType": "address",
          "name": "operator",
          "type": "address"
        }
      ],
      "name": "isApprovedForAll",
      "outputs": [
        {
          "internalType": "bool",
          "name": "",
          "type": "bool"
        }
      ],
      "stateMutability": "view",
      "type": "function",
      "constant": true
    },
    {
      "inputs": [
        {
          "internalType": "bytes32",
          "name": "role",
          "type": "bytes32"
        },
        {
          "internalType": "address",
          "name": "account",
          "type": "address"
        }
      ],
      "name": "renounceRole",
      "outputs": [],
      "stateMutability": "nonpayable",
      "type": "function"
    },
    {
      "inputs": [
        {
          "internalType": "bytes32",
          "name": "role",
          "type": "bytes32"
        },
        {
          "internalType": "address",
          "name": "account",
          "type": "address"
        }
      ],
      "name": "revokeRole",
      "outputs": [],
      "stateMutability": "nonpayable",
      "type": "function"
    },
    {
      "inputs": [
        {
          "internalType": "address",
          "name": "from",
          "type": "address"
        },
        {
          "internalType": "address",
          "name": "to",
          "type": "address"
        },
        {
          "internalType": "uint256[]",
          "name": "ids",
          "type": "uint256[]"
        },
        {
          "internalType": "uint256[]",
          "name": "amounts",
          "type": "uint256[]"
        },
        {
          "internalType": "bytes",
          "name": "data",
          "type": "bytes"
        }
      ],
      "name": "safeBatchTransferFrom",
      "outputs": [],
      "stateMutability": "nonpayable",
      "type": "function"
    },
    {
      "inputs": [
        {
          "internalType": "address",
          "name": "from",
          "type": "address"
        },
        {
          "internalType": "address",
          "name": "to",
          "type": "address"
        },
        {
          "internalType": "uint256",
          "name": "id",
          "type": "uint256"
        },
        {
          "internalType": "uint256",
          "name": "amount",
          "type": "uint256"
        },
        {
          "internalType": "bytes",
          "name": "data",
          "type": "bytes"
        }
      ],
      "name": "safeTransferFrom",
      "outputs": [],
      "stateMutability": "nonpayable",
      "type": "function"
    },
    {
      "inputs": [
        {
          "internalType": "address",
          "name": "operator",
          "type": "address"
        },
        {
          "internalType": "bool",
          "name": "approved",
          "type": "bool"
        }
      ],
      "name": "setApprovalForAll",
      "outputs": [],
      "stateMutability": "nonpayable",
      "type": "function"
    },
    {
      "inputs": [
        {
          "internalType": "uint256",
          "name": "id",
          "type": "uint256"
        }
      ],
      "name": "totalSupply",
      "outputs": [
        {
          "internalType": "uint256",
          "name": "",
          "type": "uint256"
        }
      ],
      "stateMutability": "view",
      "type": "function",
      "constant": true
    },
    {
      "inputs": [
        {
          "internalType": "uint256",
          "name": "",
          "type": "uint256"
        }
      ],
      "name": "uri",
      "outputs": [
        {
          "internalType": "string",
          "name": "",
          "type": "string"
        }
      ],
      "stateMutability": "view",
      "type": "function",
      "constant": true
    },
    {
      "inputs": [
        {
          "internalType": "bytes4",
          "name": "interfaceId",
          "type": "bytes4"
        }
      ],
      "name": "supportsInterface",
      "outputs": [
        {
          "internalType": "bool",
          "name": "",
          "type": "bool"
        }
      ],
      "stateMutability": "view",
      "type": "function",
      "constant": true
    },
    {
      "inputs": [
        {
          "internalType": "address",
          "name": "new_owner",
          "type": "address"
        }
      ],
      "name": "transferWorkshop",
      "outputs": [],
      "stateMutability": "nonpayable",
      "type": "function"
    },
    {
      "inputs": [
        {
          "internalType": "string",
          "name": "_newuri",
          "type": "string"
        }
      ],
      "name": "changeURI",
      "outputs": [],
      "stateMutability": "nonpayable",
      "type": "function"
    },
    {
      "inputs": [
        {
          "internalType": "uint256",
          "name": "validForNextBlocks",
          "type": "uint256"
        }
      ],
      "name": "setNextItem",
      "outputs": [],
      "stateMutability": "nonpayable",
      "type": "function"
    },
    {
      "inputs": [],
      "name": "claim",
      "outputs": [
        {
          "internalType": "uint256",
          "name": "",
          "type": "uint256"
        }
      ],
      "stateMutability": "nonpayable",
      "type": "function"
    },
    {
      "inputs": [],
      "name": "anythingClaimable",
      "outputs": [
        {
          "internalType": "bool",
          "name": "",
          "type": "bool"
        }
      ],
      "stateMutability": "view",
      "type": "function",
      "constant": true
    },
    {
      "inputs": [],
      "name": "claimableFor",
      "outputs": [
        {
          "internalType": "uint256",
          "name": "",
          "type": "uint256"
        }
      ],
      "stateMutability": "view",
      "type": "function",
      "constant": true
    },
    {
      "inputs": [],
      "name": "lastClaimableId",
      "outputs": [
        {
          "internalType": "uint256",
          "name": "",
          "type": "uint256"
        }
      ],
      "stateMutability": "view",
      "type": "function",
      "constant": true
    }
  ],
  "bytecode": "0x6080604052600060075560006008553480156200001b57600080fd5b50604051620049cc380380620049cc8339818101604052810190620000419190620005f4565b8162000053816200008e60201b60201c565b50620000867fa5651363dc3ad2710be9dfd76c472caddc2ba0ee7485770637a1a6ab1790058282620000aa60201b60201c565b5050620006bf565b8060029080519060200190620000a692919062000342565b5050565b620000bc8282620000c060201b60201c565b5050565b620000d782826200010860201b62000e3e1760201c565b620001038160056000858152602001908152602001600020620001fa60201b62000f1f1790919060201c565b505050565b6200011a82826200023260201b60201c565b620001f65760016004600084815260200190815260200160002060000160008373ffffffffffffffffffffffffffffffffffffffff1673ffffffffffffffffffffffffffffffffffffffff16815260200190815260200160002060006101000a81548160ff0219169083151502179055506200019b6200029d60201b60201c565b73ffffffffffffffffffffffffffffffffffffffff168173ffffffffffffffffffffffffffffffffffffffff16837f2f8788117e7eff1d82e926ec794901d17c78024a50270940304540a733656f0d60405160405180910390a45b5050565b60006200022a836000018373ffffffffffffffffffffffffffffffffffffffff1660001b620002a560201b60201c565b905092915050565b60006004600084815260200190815260200160002060000160008373ffffffffffffffffffffffffffffffffffffffff1673ffffffffffffffffffffffffffffffffffffffff16815260200190815260200160002060009054906101000a900460ff16905092915050565b600033905090565b6000620002b983836200031f60201b60201c565b6200031457826000018290806001815401808255809150506001900390600052602060002001600090919091909150558260000180549050836001016000848152602001908152602001600020819055506001905062000319565b600090505b92915050565b600080836001016000848152602001908152602001600020541415905092915050565b828054620003509062000689565b90600052602060002090601f016020900481019282620003745760008555620003c0565b82601f106200038f57805160ff1916838001178555620003c0565b82800160010185558215620003c0579182015b82811115620003bf578251825591602001919060010190620003a2565b5b509050620003cf9190620003d3565b5090565b5b80821115620003ee576000816000905550600101620003d4565b5090565b6000604051905090565b600080fd5b600080fd5b600080fd5b600080fd5b6000601f19601f8301169050919050565b7f4e487b7100000000000000000000000000000000000000000000000000000000600052604160045260246000fd5b6200045b8262000410565b810181811067ffffffffffffffff821117156200047d576200047c62000421565b5b80604052505050565b600062000492620003f2565b9050620004a0828262000450565b919050565b600067ffffffffffffffff821115620004c357620004c262000421565b5b620004ce8262000410565b9050602081019050919050565b60005b83811015620004fb578082015181840152602081019050620004de565b838111156200050b576000848401525b50505050565b6000620005286200052284620004a5565b62000486565b9050828152602081018484840111156200054757620005466200040b565b5b62000554848285620004db565b509392505050565b600082601f83011262000574576200057362000406565b5b81516200058684826020860162000511565b91505092915050565b600073ffffffffffffffffffffffffffffffffffffffff82169050919050565b6000620005bc826200058f565b9050919050565b620005ce81620005af565b8114620005da57600080fd5b50565b600081519050620005ee81620005c3565b92915050565b600080604083850312156200060e576200060d620003fc565b5b600083015167ffffffffffffffff8111156200062f576200062e62000401565b5b6200063d858286016200055c565b92505060206200065085828601620005dd565b9150509250929050565b7f4e487b7100000000000000000000000000000000000000000000000000000000600052602260045260246000fd5b60006002820490506001821680620006a257607f821691505b60208210811415620006b957620006b86200065a565b5b50919050565b6142fd80620006cf6000396000f3fe608060405234801561001057600080fd5b506004361061018d5760003560e01c806391d14854116100de578063cc9ebf4f11610097578063e985e9c511610071578063e985e9c5146104cc578063f0022355146104fc578063f242432a14610518578063f8ce8104146105345761018d565b8063cc9ebf4f14610478578063d547741f14610494578063e5e01c11146104b05761018d565b806391d148541461039057806395767b1f146103c0578063a217fddf146103de578063a22cb465146103fc578063bd85b03914610418578063ca15c873146104485761018d565b80632f2ff15d1161014b5780634e71d92d116101255780634e71d92d146102f45780634f558e791461031257806361209808146103425780639010d07c146103605761018d565b80632f2ff15d1461028c57806336568abe146102a85780634e1273f4146102c45761018d565b8062fdd58e1461019257806301ffc9a7146101c25780630e89341c146101f2578063227b0ca014610222578063248a9ca3146102405780632eb2c2d614610270575b600080fd5b6101ac60048036038101906101a791906128bf565b610552565b6040516101b9919061290e565b60405180910390f35b6101dc60048036038101906101d79190612981565b61061b565b6040516101e991906129c9565b60405180910390f35b61020c600480360381019061020791906129e4565b61062d565b6040516102199190612aaa565b60405180910390f35b61022a6106c1565b60405161023791906129c9565b60405180910390f35b61025a60048036038101906102559190612b02565b6106cd565b6040516102679190612b3e565b60405180910390f35b61028a60048036038101906102859190612d56565b6106ed565b005b6102a660048036038101906102a19190612e25565b61078e565b005b6102c260048036038101906102bd9190612e25565b6107b7565b005b6102de60048036038101906102d99190612f28565b61083a565b6040516102eb919061305e565b60405180910390f35b6102fc610953565b604051610309919061290e565b60405180910390f35b61032c600480360381019061032791906129e4565b610a0e565b60405161033991906129c9565b60405180910390f35b61034a610a22565b604051610357919061290e565b60405180910390f35b61037a60048036038101906103759190613080565b610a4b565b60405161038791906130cf565b60405180910390f35b6103aa60048036038101906103a59190612e25565b610a7a565b6040516103b791906129c9565b60405180910390f35b6103c8610ae5565b6040516103d5919061290e565b60405180910390f35b6103e6610aef565b6040516103f39190612b3e565b60405180910390f35b61041660048036038101906104119190613116565b610af6565b005b610432600480360381019061042d91906129e4565b610b0c565b60405161043f919061290e565b60405180910390f35b610462600480360381019061045d9190612b02565b610b29565b60405161046f919061290e565b60405180910390f35b610492600480360381019061048d9190613156565b610b4d565b005b6104ae60048036038101906104a99190612e25565b610bd7565b005b6104ca60048036038101906104c59190613224565b610c00565b005b6104e660048036038101906104e1919061326d565b610c3f565b6040516104f391906129c9565b60405180910390f35b610516600480360381019061051191906129e4565b610cd3565b005b610532600480360381019061052d91906132ad565b610d79565b005b61053c610e1a565b6040516105499190612b3e565b60405180910390f35b60008073ffffffffffffffffffffffffffffffffffffffff168373ffffffffffffffffffffffffffffffffffffffff1614156105c3576040517f08c379a00000000000000000000000000000000000000000000000000000000081526004016105ba906133b6565b60405180910390fd5b60008083815260200190815260200160002060008473ffffffffffffffffffffffffffffffffffffffff1673ffffffffffffffffffffffffffffffffffffffff16815260200190815260200160002054905092915050565b600061062682610f4f565b9050919050565b60606002805461063c90613405565b80601f016020809104026020016040519081016040528092919081815260200182805461066890613405565b80156106b55780601f1061068a576101008083540402835291602001916106b5565b820191906000526020600020905b81548152906001019060200180831161069857829003601f168201915b50505050509050919050565b60006008544310905090565b600060046000838152602001908152602001600020600101549050919050565b6106f5610fc9565b73ffffffffffffffffffffffffffffffffffffffff168573ffffffffffffffffffffffffffffffffffffffff16148061073b575061073a85610735610fc9565b610c3f565b5b61077a576040517f08c379a0000000000000000000000000000000000000000000000000000000008152600401610771906134a9565b60405180910390fd5b6107878585858585610fd1565b5050505050565b610797826106cd565b6107a8816107a3610fc9565b6112e5565b6107b28383611382565b505050565b6107bf610fc9565b73ffffffffffffffffffffffffffffffffffffffff168173ffffffffffffffffffffffffffffffffffffffff161461082c576040517f08c379a00000000000000000000000000000000000000000000000000000000081526004016108239061353b565b60405180910390fd5b61083682826113b6565b5050565b60608151835114610880576040517f08c379a0000000000000000000000000000000000000000000000000000000008152600401610877906135cd565b60405180910390fd5b6000835167ffffffffffffffff81111561089d5761089c612b5e565b5b6040519080825280602002602001820160405280156108cb5781602001602082028036833780820191505090505b50905060005b8451811015610948576109188582815181106108f0576108ef6135ed565b5b602002602001015185838151811061090b5761090a6135ed565b5b6020026020010151610552565b82828151811061092b5761092a6135ed565b5b602002602001018181525050806109419061364b565b90506108d1565b508091505092915050565b600060085443111561099a576040517f08c379a000000000000000000000000000000000000000000000000000000000815260040161099190613706565b60405180910390fd5b60006109a833600754610552565b146109e8576040517f08c379a00000000000000000000000000000000000000000000000000000000081526004016109df90613798565b60405180910390fd5b610a06336007546001604051806020016040528060008152506113ea565b600754905090565b600080610a1a83610b0c565b119050919050565b6000436008541115610a435743600854610a3c91906137b8565b9050610a48565b600090505b90565b6000610a72826005600086815260200190815260200160002061158090919063ffffffff16565b905092915050565b60006004600084815260200190815260200160002060000160008373ffffffffffffffffffffffffffffffffffffffff1673ffffffffffffffffffffffffffffffffffffffff16815260200190815260200160002060009054906101000a900460ff16905092915050565b6000600754905090565b6000801b81565b610b08610b01610fc9565b838361159a565b5050565b600060036000838152602001908152602001600020549050919050565b6000610b4660056000848152602001908152602001600020611707565b9050919050565b7fa5651363dc3ad2710be9dfd76c472caddc2ba0ee7485770637a1a6ab17900582610b7f81610b7a610fc9565b6112e5565b610ba97fa5651363dc3ad2710be9dfd76c472caddc2ba0ee7485770637a1a6ab179005828361171c565b610bd37fa5651363dc3ad2710be9dfd76c472caddc2ba0ee7485770637a1a6ab17900582336107b7565b5050565b610be0826106cd565b610bf181610bec610fc9565b6112e5565b610bfb83836113b6565b505050565b7fa5651363dc3ad2710be9dfd76c472caddc2ba0ee7485770637a1a6ab17900582610c3281610c2d610fc9565b6112e5565b610c3b8261172a565b5050565b6000600160008473ffffffffffffffffffffffffffffffffffffffff1673ffffffffffffffffffffffffffffffffffffffff16815260200190815260200160002060008373ffffffffffffffffffffffffffffffffffffffff1673ffffffffffffffffffffffffffffffffffffffff16815260200190815260200160002060009054906101000a900460ff16905092915050565b7fa5651363dc3ad2710be9dfd76c472caddc2ba0ee7485770637a1a6ab17900582610d0581610d00610fc9565b6112e5565b6008544311610d49576040517f08c379a0000000000000000000000000000000000000000000000000000000008152600401610d4090613884565b60405180910390fd5b610d536006611744565b610d5d600661175a565b6007819055508143610d6f91906138a4565b6008819055505050565b610d81610fc9565b73ffffffffffffffffffffffffffffffffffffffff168573ffffffffffffffffffffffffffffffffffffffff161480610dc75750610dc685610dc1610fc9565b610c3f565b5b610e06576040517f08c379a0000000000000000000000000000000000000000000000000000000008152600401610dfd9061396c565b60405180910390fd5b610e138585858585611768565b5050505050565b7fa5651363dc3ad2710be9dfd76c472caddc2ba0ee7485770637a1a6ab1790058281565b610e488282610a7a565b610f1b5760016004600084815260200190815260200160002060000160008373ffffffffffffffffffffffffffffffffffffffff1673ffffffffffffffffffffffffffffffffffffffff16815260200190815260200160002060006101000a81548160ff021916908315150217905550610ec0610fc9565b73ffffffffffffffffffffffffffffffffffffffff168173ffffffffffffffffffffffffffffffffffffffff16837f2f8788117e7eff1d82e926ec794901d17c78024a50270940304540a733656f0d60405160405180910390a45b5050565b6000610f47836000018373ffffffffffffffffffffffffffffffffffffffff1660001b6119ea565b905092915050565b60007f5a05180f000000000000000000000000000000000000000000000000000000007bffffffffffffffffffffffffffffffffffffffffffffffffffffffff1916827bffffffffffffffffffffffffffffffffffffffffffffffffffffffff19161480610fc25750610fc182611a5a565b5b9050919050565b600033905090565b8151835114611015576040517f08c379a000000000000000000000000000000000000000000000000000000000815260040161100c906139fe565b60405180910390fd5b600073ffffffffffffffffffffffffffffffffffffffff168473ffffffffffffffffffffffffffffffffffffffff161415611085576040517f08c379a000000000000000000000000000000000000000000000000000000000815260040161107c90613a90565b60405180910390fd5b600061108f610fc9565b905061109f818787878787611ad4565b60005b84518110156112505760008582815181106110c0576110bf6135ed565b5b6020026020010151905060008583815181106110df576110de6135ed565b5b60200260200101519050600080600084815260200190815260200160002060008b73ffffffffffffffffffffffffffffffffffffffff1673ffffffffffffffffffffffffffffffffffffffff16815260200190815260200160002054905081811015611180576040517f08c379a000000000000000000000000000000000000000000000000000000000815260040161117790613b22565b60405180910390fd5b81810360008085815260200190815260200160002060008c73ffffffffffffffffffffffffffffffffffffffff1673ffffffffffffffffffffffffffffffffffffffff168152602001908152602001600020819055508160008085815260200190815260200160002060008b73ffffffffffffffffffffffffffffffffffffffff1673ffffffffffffffffffffffffffffffffffffffff168152602001908152602001600020600082825461123591906138a4565b92505081905550505050806112499061364b565b90506110a2565b508473ffffffffffffffffffffffffffffffffffffffff168673ffffffffffffffffffffffffffffffffffffffff168273ffffffffffffffffffffffffffffffffffffffff167f4a39dc06d4c0dbc64b70af90fd698a233a518aa5d07e595d983b8c0526c8f7fb87876040516112c7929190613b42565b60405180910390a46112dd818787878787611ba8565b505050505050565b6112ef8282610a7a565b61137e576113148173ffffffffffffffffffffffffffffffffffffffff166014611d80565b6113228360001c6020611d80565b604051602001611333929190613c4d565b6040516020818303038152906040526040517f08c379a00000000000000000000000000000000000000000000000000000000081526004016113759190612aaa565b60405180910390fd5b5050565b61138c8282610e3e565b6113b18160056000858152602001908152602001600020610f1f90919063ffffffff16565b505050565b6113c08282611fbc565b6113e5816005600085815260200190815260200160002061209e90919063ffffffff16565b505050565b600073ffffffffffffffffffffffffffffffffffffffff168473ffffffffffffffffffffffffffffffffffffffff16141561145a576040517f08c379a000000000000000000000000000000000000000000000000000000000815260040161145190613cf9565b60405180910390fd5b6000611464610fc9565b905061148581600087611476886120ce565b61147f886120ce565b87611ad4565b8260008086815260200190815260200160002060008773ffffffffffffffffffffffffffffffffffffffff1673ffffffffffffffffffffffffffffffffffffffff16815260200190815260200160002060008282546114e491906138a4565b925050819055508473ffffffffffffffffffffffffffffffffffffffff16600073ffffffffffffffffffffffffffffffffffffffff168273ffffffffffffffffffffffffffffffffffffffff167fc3d58168c5ae7397731d063d5bbf3d657854427343f4c083240f7aacaa2d0f628787604051611562929190613d19565b60405180910390a461157981600087878787612148565b5050505050565b600061158f8360000183612320565b60001c905092915050565b8173ffffffffffffffffffffffffffffffffffffffff168373ffffffffffffffffffffffffffffffffffffffff161415611609576040517f08c379a000000000000000000000000000000000000000000000000000000000815260040161160090613db4565b60405180910390fd5b80600160008573ffffffffffffffffffffffffffffffffffffffff1673ffffffffffffffffffffffffffffffffffffffff16815260200190815260200160002060008473ffffffffffffffffffffffffffffffffffffffff1673ffffffffffffffffffffffffffffffffffffffff16815260200190815260200160002060006101000a81548160ff0219169083151502179055508173ffffffffffffffffffffffffffffffffffffffff168373ffffffffffffffffffffffffffffffffffffffff167f17307eab39ab6107e8899845ad3d59bd9653f200f220920489ca2b5937696c31836040516116fa91906129c9565b60405180910390a3505050565b60006117158260000161234b565b9050919050565b6117268282611382565b5050565b8060029080519060200190611740929190612774565b5050565b6001816000016000828254019250508190555050565b600081600001549050919050565b600073ffffffffffffffffffffffffffffffffffffffff168473ffffffffffffffffffffffffffffffffffffffff1614156117d8576040517f08c379a00000000000000000000000000000000000000000000000000000000081526004016117cf90613a90565b60405180910390fd5b60006117e2610fc9565b90506118028187876117f3886120ce565b6117fc886120ce565b87611ad4565b600080600086815260200190815260200160002060008873ffffffffffffffffffffffffffffffffffffffff1673ffffffffffffffffffffffffffffffffffffffff16815260200190815260200160002054905083811015611899576040517f08c379a000000000000000000000000000000000000000000000000000000000815260040161189090613b22565b60405180910390fd5b83810360008087815260200190815260200160002060008973ffffffffffffffffffffffffffffffffffffffff1673ffffffffffffffffffffffffffffffffffffffff168152602001908152602001600020819055508360008087815260200190815260200160002060008873ffffffffffffffffffffffffffffffffffffffff1673ffffffffffffffffffffffffffffffffffffffff168152602001908152602001600020600082825461194e91906138a4565b925050819055508573ffffffffffffffffffffffffffffffffffffffff168773ffffffffffffffffffffffffffffffffffffffff168373ffffffffffffffffffffffffffffffffffffffff167fc3d58168c5ae7397731d063d5bbf3d657854427343f4c083240f7aacaa2d0f6288886040516119cb929190613d19565b60405180910390a46119e1828888888888612148565b50505050505050565b60006119f6838361235c565b611a4f578260000182908060018154018082558091505060019003906000526020600020016000909190919091505582600001805490508360010160008481526020019081526020016000208190555060019050611a54565b600090505b92915050565b60007f7965db0b000000000000000000000000000000000000000000000000000000007bffffffffffffffffffffffffffffffffffffffffffffffffffffffff1916827bffffffffffffffffffffffffffffffffffffffffffffffffffffffff19161480611acd5750611acc8261237f565b5b9050919050565b6008544311611b9257600073ffffffffffffffffffffffffffffffffffffffff168573ffffffffffffffffffffffffffffffffffffffff1614611b915760005b8351811015611b8f57600754848281518110611b3357611b326135ed565b5b60200260200101511415611b7c576040517f08c379a0000000000000000000000000000000000000000000000000000000008152600401611b7390613e46565b60405180910390fd5b8080611b879061364b565b915050611b14565b505b5b611ba0868686868686612461565b505050505050565b611bc78473ffffffffffffffffffffffffffffffffffffffff166125db565b15611d78578373ffffffffffffffffffffffffffffffffffffffff1663bc197c8187878686866040518663ffffffff1660e01b8152600401611c0d959493929190613ebb565b6020604051808303816000875af1925050508015611c4957506040513d601f19601f82011682018060405250810190611c469190613f38565b60015b611cef57611c55613f72565b806308c379a01415611cb25750611c6a613f94565b80611c755750611cb4565b806040517f08c379a0000000000000000000000000000000000000000000000000000000008152600401611ca99190612aaa565b60405180910390fd5b505b6040517f08c379a0000000000000000000000000000000000000000000000000000000008152600401611ce69061409c565b60405180910390fd5b63bc197c8160e01b7bffffffffffffffffffffffffffffffffffffffffffffffffffffffff1916817bffffffffffffffffffffffffffffffffffffffffffffffffffffffff191614611d76576040517f08c379a0000000000000000000000000000000000000000000000000000000008152600401611d6d9061412e565b60405180910390fd5b505b505050505050565b606060006002836002611d93919061414e565b611d9d91906138a4565b67ffffffffffffffff811115611db657611db5612b5e565b5b6040519080825280601f01601f191660200182016040528015611de85781602001600182028036833780820191505090505b5090507f300000000000000000000000000000000000000000000000000000000000000081600081518110611e2057611e1f6135ed565b5b60200101907effffffffffffffffffffffffffffffffffffffffffffffffffffffffffffff1916908160001a9053507f780000000000000000000000000000000000000000000000000000000000000081600181518110611e8457611e836135ed565b5b60200101907effffffffffffffffffffffffffffffffffffffffffffffffffffffffffffff1916908160001a90535060006001846002611ec4919061414e565b611ece91906138a4565b90505b6001811115611f6e577f3031323334353637383961626364656600000000000000000000000000000000600f861660108110611f1057611f0f6135ed565b5b1a60f81b828281518110611f2757611f266135ed565b5b60200101907effffffffffffffffffffffffffffffffffffffffffffffffffffffffffffff1916908160001a905350600485901c945080611f67906141a8565b9050611ed1565b5060008414611fb2576040517f08c379a0000000000000000000000000000000000000000000000000000000008152600401611fa99061421e565b60405180910390fd5b8091505092915050565b611fc68282610a7a565b1561209a5760006004600084815260200190815260200160002060000160008373ffffffffffffffffffffffffffffffffffffffff1673ffffffffffffffffffffffffffffffffffffffff16815260200190815260200160002060006101000a81548160ff02191690831515021790555061203f610fc9565b73ffffffffffffffffffffffffffffffffffffffff168173ffffffffffffffffffffffffffffffffffffffff16837ff6391f5c32d9c69d2a47ea670b442974b53935d1edc7fd64eb21e047a839171b60405160405180910390a45b5050565b60006120c6836000018373ffffffffffffffffffffffffffffffffffffffff1660001b6125ee565b905092915050565b60606000600167ffffffffffffffff8111156120ed576120ec612b5e565b5b60405190808252806020026020018201604052801561211b5781602001602082028036833780820191505090505b5090508281600081518110612133576121326135ed565b5b60200260200101818152505080915050919050565b6121678473ffffffffffffffffffffffffffffffffffffffff166125db565b15612318578373ffffffffffffffffffffffffffffffffffffffff1663f23a6e6187878686866040518663ffffffff1660e01b81526004016121ad95949392919061423e565b6020604051808303816000875af19250505080156121e957506040513d601f19601f820116820180604052508101906121e69190613f38565b60015b61228f576121f5613f72565b806308c379a01415612252575061220a613f94565b806122155750612254565b806040517f08c379a00000000000000000000000000000000000000000000000000000000081526004016122499190612aaa565b60405180910390fd5b505b6040517f08c379a00000000000000000000000000000000000000000000000000000000081526004016122869061409c565b60405180910390fd5b63f23a6e6160e01b7bffffffffffffffffffffffffffffffffffffffffffffffffffffffff1916817bffffffffffffffffffffffffffffffffffffffffffffffffffffffff191614612316576040517f08c379a000000000000000000000000000000000000000000000000000000000815260040161230d9061412e565b60405180910390fd5b505b505050505050565b6000826000018281548110612338576123376135ed565b5b9060005260206000200154905092915050565b600081600001805490509050919050565b600080836001016000848152602001908152602001600020541415905092915050565b60007fd9b67a26000000000000000000000000000000000000000000000000000000007bffffffffffffffffffffffffffffffffffffffffffffffffffffffff1916827bffffffffffffffffffffffffffffffffffffffffffffffffffffffff1916148061244a57507f0e89341c000000000000000000000000000000000000000000000000000000007bffffffffffffffffffffffffffffffffffffffffffffffffffffffff1916827bffffffffffffffffffffffffffffffffffffffffffffffffffffffff1916145b8061245a575061245982612702565b5b9050919050565b61246f86868686868661276c565b600073ffffffffffffffffffffffffffffffffffffffff168573ffffffffffffffffffffffffffffffffffffffff1614156125215760005b835181101561251f578281815181106124c3576124c26135ed565b5b6020026020010151600360008684815181106124e2576124e16135ed565b5b60200260200101518152602001908152602001600020600082825461250791906138a4565b92505081905550806125189061364b565b90506124a7565b505b600073ffffffffffffffffffffffffffffffffffffffff168473ffffffffffffffffffffffffffffffffffffffff1614156125d35760005b83518110156125d157828181518110612575576125746135ed565b5b602002602001015160036000868481518110612594576125936135ed565b5b6020026020010151815260200190815260200160002060008282546125b991906137b8565b92505081905550806125ca9061364b565b9050612559565b505b505050505050565b600080823b905060008111915050919050565b600080836001016000848152602001908152602001600020549050600081146126f657600060018261262091906137b8565b905060006001866000018054905061263891906137b8565b90508181146126a7576000866000018281548110612659576126586135ed565b5b906000526020600020015490508087600001848154811061267d5761267c6135ed565b5b90600052602060002001819055508387600101600083815260200190815260200160002081905550505b856000018054806126bb576126ba614298565b5b6001900381819060005260206000200160009055905585600101600086815260200190815260200160002060009055600193505050506126fc565b60009150505b92915050565b60007f01ffc9a7000000000000000000000000000000000000000000000000000000007bffffffffffffffffffffffffffffffffffffffffffffffffffffffff1916827bffffffffffffffffffffffffffffffffffffffffffffffffffffffff1916149050919050565b505050505050565b82805461278090613405565b90600052602060002090601f0160209004810192826127a257600085556127e9565b82601f106127bb57805160ff19168380011785556127e9565b828001600101855582156127e9579182015b828111156127e85782518255916020019190600101906127cd565b5b5090506127f691906127fa565b5090565b5b808211156128135760008160009055506001016127fb565b5090565b6000604051905090565b600080fd5b600080fd5b600073ffffffffffffffffffffffffffffffffffffffff82169050919050565b60006128568261282b565b9050919050565b6128668161284b565b811461287157600080fd5b50565b6000813590506128838161285d565b92915050565b6000819050919050565b61289c81612889565b81146128a757600080fd5b50565b6000813590506128b981612893565b92915050565b600080604083850312156128d6576128d5612821565b5b60006128e485828601612874565b92505060206128f5858286016128aa565b9150509250929050565b61290881612889565b82525050565b600060208201905061292360008301846128ff565b92915050565b60007fffffffff0000000000000000000000000000000000000000000000000000000082169050919050565b61295e81612929565b811461296957600080fd5b50565b60008135905061297b81612955565b92915050565b60006020828403121561299757612996612821565b5b60006129a58482850161296c565b91505092915050565b60008115159050919050565b6129c3816129ae565b82525050565b60006020820190506129de60008301846129ba565b92915050565b6000602082840312156129fa576129f9612821565b5b6000612a08848285016128aa565b91505092915050565b600081519050919050565b600082825260208201905092915050565b60005b83811015612a4b578082015181840152602081019050612a30565b83811115612a5a576000848401525b50505050565b6000601f19601f8301169050919050565b6000612a7c82612a11565b612a868185612a1c565b9350612a96818560208601612a2d565b612a9f81612a60565b840191505092915050565b60006020820190508181036000830152612ac48184612a71565b905092915050565b6000819050919050565b612adf81612acc565b8114612aea57600080fd5b50565b600081359050612afc81612ad6565b92915050565b600060208284031215612b1857612b17612821565b5b6000612b2684828501612aed565b91505092915050565b612b3881612acc565b82525050565b6000602082019050612b536000830184612b2f565b92915050565b600080fd5b7f4e487b7100000000000000000000000000000000000000000000000000000000600052604160045260246000fd5b612b9682612a60565b810181811067ffffffffffffffff82111715612bb557612bb4612b5e565b5b80604052505050565b6000612bc8612817565b9050612bd48282612b8d565b919050565b600067ffffffffffffffff821115612bf457612bf3612b5e565b5b602082029050602081019050919050565b600080fd5b6000612c1d612c1884612bd9565b612bbe565b90508083825260208201905060208402830185811115612c4057612c3f612c05565b5b835b81811015612c695780612c5588826128aa565b845260208401935050602081019050612c42565b5050509392505050565b600082601f830112612c8857612c87612b59565b5b8135612c98848260208601612c0a565b91505092915050565b600080fd5b600067ffffffffffffffff821115612cc157612cc0612b5e565b5b612cca82612a60565b9050602081019050919050565b82818337600083830152505050565b6000612cf9612cf484612ca6565b612bbe565b905082815260208101848484011115612d1557612d14612ca1565b5b612d20848285612cd7565b509392505050565b600082601f830112612d3d57612d3c612b59565b5b8135612d4d848260208601612ce6565b91505092915050565b600080600080600060a08688031215612d7257612d71612821565b5b6000612d8088828901612874565b9550506020612d9188828901612874565b945050604086013567ffffffffffffffff811115612db257612db1612826565b5b612dbe88828901612c73565b935050606086013567ffffffffffffffff811115612ddf57612dde612826565b5b612deb88828901612c73565b925050608086013567ffffffffffffffff811115612e0c57612e0b612826565b5b612e1888828901612d28565b9150509295509295909350565b60008060408385031215612e3c57612e3b612821565b5b6000612e4a85828601612aed565b9250506020612e5b85828601612874565b9150509250929050565b600067ffffffffffffffff821115612e8057612e7f612b5e565b5b602082029050602081019050919050565b6000612ea4612e9f84612e65565b612bbe565b90508083825260208201905060208402830185811115612ec757612ec6612c05565b5b835b81811015612ef05780612edc8882612874565b845260208401935050602081019050612ec9565b5050509392505050565b600082601f830112612f0f57612f0e612b59565b5b8135612f1f848260208601612e91565b91505092915050565b60008060408385031215612f3f57612f3e612821565b5b600083013567ffffffffffffffff811115612f5d57612f5c612826565b5b612f6985828601612efa565b925050602083013567ffffffffffffffff811115612f8a57612f89612826565b5b612f9685828601612c73565b9150509250929050565b600081519050919050565b600082825260208201905092915050565b6000819050602082019050919050565b612fd581612889565b82525050565b6000612fe78383612fcc565b60208301905092915050565b6000602082019050919050565b600061300b82612fa0565b6130158185612fab565b935061302083612fbc565b8060005b838110156130515781516130388882612fdb565b975061304383612ff3565b925050600181019050613024565b5085935050505092915050565b600060208201905081810360008301526130788184613000565b905092915050565b6000806040838503121561309757613096612821565b5b60006130a585828601612aed565b92505060206130b6858286016128aa565b9150509250929050565b6130c98161284b565b82525050565b60006020820190506130e460008301846130c0565b92915050565b6130f3816129ae565b81146130fe57600080fd5b50565b600081359050613110816130ea565b92915050565b6000806040838503121561312d5761312c612821565b5b600061313b85828601612874565b925050602061314c85828601613101565b9150509250929050565b60006020828403121561316c5761316b612821565b5b600061317a84828501612874565b91505092915050565b600067ffffffffffffffff82111561319e5761319d612b5e565b5b6131a782612a60565b9050602081019050919050565b60006131c76131c284613183565b612bbe565b9050828152602081018484840111156131e3576131e2612ca1565b5b6131ee848285612cd7565b509392505050565b600082601f83011261320b5761320a612b59565b5b813561321b8482602086016131b4565b91505092915050565b60006020828403121561323a57613239612821565b5b600082013567ffffffffffffffff81111561325857613257612826565b5b613264848285016131f6565b91505092915050565b6000806040838503121561328457613283612821565b5b600061329285828601612874565b92505060206132a385828601612874565b9150509250929050565b600080600080600060a086880312156132c9576132c8612821565b5b60006132d788828901612874565b95505060206132e888828901612874565b94505060406132f9888289016128aa565b935050606061330a888289016128aa565b925050608086013567ffffffffffffffff81111561332b5761332a612826565b5b61333788828901612d28565b9150509295509295909350565b7f455243313135353a2062616c616e636520717565727920666f7220746865207a60008201527f65726f2061646472657373000000000000000000000000000000000000000000602082015250565b60006133a0602b83612a1c565b91506133ab82613344565b604082019050919050565b600060208201905081810360008301526133cf81613393565b9050919050565b7f4e487b7100000000000000000000000000000000000000000000000000000000600052602260045260246000fd5b6000600282049050600182168061341d57607f821691505b60208210811415613431576134306133d6565b5b50919050565b7f455243313135353a207472616e736665722063616c6c6572206973206e6f742060008201527f6f776e6572206e6f7220617070726f7665640000000000000000000000000000602082015250565b6000613493603283612a1c565b915061349e82613437565b604082019050919050565b600060208201905081810360008301526134c281613486565b9050919050565b7f416363657373436f6e74726f6c3a2063616e206f6e6c792072656e6f756e636560008201527f20726f6c657320666f722073656c660000000000000000000000000000000000602082015250565b6000613525602f83612a1c565b9150613530826134c9565b604082019050919050565b6000602082019050818103600083015261355481613518565b9050919050565b7f455243313135353a206163636f756e747320616e6420696473206c656e67746860008201527f206d69736d617463680000000000000000000000000000000000000000000000602082015250565b60006135b7602983612a1c565b91506135c28261355b565b604082019050919050565b600060208201905081810360008301526135e6816135aa565b9050919050565b7f4e487b7100000000000000000000000000000000000000000000000000000000600052603260045260246000fd5b7f4e487b7100000000000000000000000000000000000000000000000000000000600052601160045260246000fd5b600061365682612889565b91507fffffffffffffffffffffffffffffffffffffffffffffffffffffffffffffffff8214156136895761368861361c565b5b600182019050919050565b7f43757272656e746c79207468657265206973206e6f7468696e6720617661696c60008201527f61626c6520746f20636c61696d2e000000000000000000000000000000000000602082015250565b60006136f0602e83612a1c565b91506136fb82613694565b604082019050919050565b6000602082019050818103600083015261371f816136e3565b9050919050565b7f596f752063616e206f6e6c7920636c61696d206f6e65206974656d2066726f6d60008201527f206120636f6c6c656374696f6e2e000000000000000000000000000000000000602082015250565b6000613782602e83612a1c565b915061378d82613726565b604082019050919050565b600060208201905081810360008301526137b181613775565b9050919050565b60006137c382612889565b91506137ce83612889565b9250828210156137e1576137e061361c565b5b828203905092915050565b7f576f61682c206c6f6f6b73206c696b6520776527766520616c7265616479207060008201527f726f6d6973656420736f6d657468696e672c20676f747461207761697420756e60208201527f74696c2074686174277320646f6e652e00000000000000000000000000000000604082015250565b600061386e605083612a1c565b9150613879826137ec565b606082019050919050565b6000602082019050818103600083015261389d81613861565b9050919050565b60006138af82612889565b91506138ba83612889565b9250827fffffffffffffffffffffffffffffffffffffffffffffffffffffffffffffffff038211156138ef576138ee61361c565b5b828201905092915050565b7f455243313135353a2063616c6c6572206973206e6f74206f776e6572206e6f7260008201527f20617070726f7665640000000000000000000000000000000000000000000000602082015250565b6000613956602983612a1c565b9150613961826138fa565b604082019050919050565b6000602082019050818103600083015261398581613949565b9050919050565b7f455243313135353a2069647320616e6420616d6f756e7473206c656e6774682060008201527f6d69736d61746368000000000000000000000000000000000000000000000000602082015250565b60006139e8602883612a1c565b91506139f38261398c565b604082019050919050565b60006020820190508181036000830152613a17816139db565b9050919050565b7f455243313135353a207472616e7366657220746f20746865207a65726f20616460008201527f6472657373000000000000000000000000000000000000000000000000000000602082015250565b6000613a7a602583612a1c565b9150613a8582613a1e565b604082019050919050565b60006020820190508181036000830152613aa981613a6d565b9050919050565b7f455243313135353a20696e73756666696369656e742062616c616e636520666f60008201527f72207472616e7366657200000000000000000000000000000000000000000000602082015250565b6000613b0c602a83612a1c565b9150613b1782613ab0565b604082019050919050565b60006020820190508181036000830152613b3b81613aff565b9050919050565b60006040820190508181036000830152613b5c8185613000565b90508181036020830152613b708184613000565b90509392505050565b600081905092915050565b7f416363657373436f6e74726f6c3a206163636f756e7420000000000000000000600082015250565b6000613bba601783613b79565b9150613bc582613b84565b601782019050919050565b6000613bdb82612a11565b613be58185613b79565b9350613bf5818560208601612a2d565b80840191505092915050565b7f206973206d697373696e6720726f6c6520000000000000000000000000000000600082015250565b6000613c37601183613b79565b9150613c4282613c01565b601182019050919050565b6000613c5882613bad565b9150613c648285613bd0565b9150613c6f82613c2a565b9150613c7b8284613bd0565b91508190509392505050565b7f455243313135353a206d696e7420746f20746865207a65726f2061646472657360008201527f7300000000000000000000000000000000000000000000000000000000000000602082015250565b6000613ce3602183612a1c565b9150613cee82613c87565b604082019050919050565b60006020820190508181036000830152613d1281613cd6565b9050919050565b6000604082019050613d2e60008301856128ff565b613d3b60208301846128ff565b9392505050565b7f455243313135353a2073657474696e6720617070726f76616c2073746174757360008201527f20666f722073656c660000000000000000000000000000000000000000000000602082015250565b6000613d9e602983612a1c565b9150613da982613d42565b604082019050919050565b60006020820190508181036000830152613dcd81613d91565b9050919050565b7f4974656d732063616e6e6f74206265207472616e736665726564207768696c6560008201527f2074686579206172652063757272656e746c7920636c61696d61626c652e0000602082015250565b6000613e30603e83612a1c565b9150613e3b82613dd4565b604082019050919050565b60006020820190508181036000830152613e5f81613e23565b9050919050565b600081519050919050565b600082825260208201905092915050565b6000613e8d82613e66565b613e978185613e71565b9350613ea7818560208601612a2d565b613eb081612a60565b840191505092915050565b600060a082019050613ed060008301886130c0565b613edd60208301876130c0565b8181036040830152613eef8186613000565b90508181036060830152613f038185613000565b90508181036080830152613f178184613e82565b90509695505050505050565b600081519050613f3281612955565b92915050565b600060208284031215613f4e57613f4d612821565b5b6000613f5c84828501613f23565b91505092915050565b60008160e01c9050919050565b600060033d1115613f915760046000803e613f8e600051613f65565b90505b90565b600060443d1015613fa457614027565b613fac612817565b60043d036004823e80513d602482011167ffffffffffffffff82111715613fd4575050614027565b808201805167ffffffffffffffff811115613ff25750505050614027565b80602083010160043d03850181111561400f575050505050614027565b61401e82602001850186612b8d565b82955050505050505b90565b7f455243313135353a207472616e7366657220746f206e6f6e204552433131353560008201527f526563656976657220696d706c656d656e746572000000000000000000000000602082015250565b6000614086603483612a1c565b91506140918261402a565b604082019050919050565b600060208201905081810360008301526140b581614079565b9050919050565b7f455243313135353a204552433131353552656365697665722072656a6563746560008201527f6420746f6b656e73000000000000000000000000000000000000000000000000602082015250565b6000614118602883612a1c565b9150614123826140bc565b604082019050919050565b600060208201905081810360008301526141478161410b565b9050919050565b600061415982612889565b915061416483612889565b9250817fffffffffffffffffffffffffffffffffffffffffffffffffffffffffffffffff048311821515161561419d5761419c61361c565b5b828202905092915050565b60006141b382612889565b915060008214156141c7576141c661361c565b5b600182039050919050565b7f537472696e67733a20686578206c656e67746820696e73756666696369656e74600082015250565b6000614208602083612a1c565b9150614213826141d2565b602082019050919050565b60006020820190508181036000830152614237816141fb565b9050919050565b600060a08201905061425360008301886130c0565b61426060208301876130c0565b61426d60408301866128ff565b61427a60608301856128ff565b818103608083015261428c8184613e82565b90509695505050505050565b7f4e487b7100000000000000000000000000000000000000000000000000000000600052603160045260246000fdfea26469706673582212208189a1107bdeddb4a9dcec6d78bd3bdc7008f8a4086671106c43a3bf533a649264736f6c634300080b0033",
  "immutableReferences": {},
  "source": "// SPDX-License-Identifier: MIT\npragma solidity ^0.8.0;\n\nimport \"@openzeppelin/contracts/token/ERC1155/ERC1155.sol\";\nimport \"@openzeppelin/contracts/token/ERC1155/extensions/ERC1155Supply.sol\";\nimport \"@openzeppelin/contracts/access/AccessControlEnumerable.sol\";\nimport \"@openzeppelin/contracts/utils/Counters.sol\";\n\n/** @title Pokt Workshop\n  * @author blockjoe\n  * @notice An ERC-1155 that allows for developers participating in build workshops to claim a collection item by following along.\n  * @dev At any given time, a single item of the collection has the ability to be claimed. Each address can only claim 1 item. While an item is claimable, it cannot be transfered.\n  */\ncontract PoktWorkshop is ERC1155, ERC1155Supply, AccessControlEnumerable {\n  bytes32 public constant WORKSHOP_ROLE = keccak256(\"WORKSHOP_ROLE\");\n\n  using Counters for Counters.Counter;\n  Counters.Counter private _collectionIds;\n\n  uint256 private _currentCollectionId = 0;\n  uint256 private _claimableUntil = 0;\n\n  /** @dev Initializes the URI and address that can authorize new workshop periods.\n    * @param _uri The URI that corresponds to URI that resolves the metadata\n    * @param workshop_owner The address that has the ability to authorize new workshop items\n    */\n  constructor(string memory _uri, address workshop_owner) ERC1155(_uri) {\n    _setupRole(WORKSHOP_ROLE, workshop_owner);\n  }\n\n  function supportsInterface(bytes4 interfaceId) public view override(ERC1155, AccessControlEnumerable) returns (bool) {\n    return super.supportsInterface(interfaceId);\n  }\n\n  /** @notice Transfer the contract of the workshop owner role to a new contract.\n    * @dev Only can be called by the current workshop_owner.\n    * @param new_owner The address of the new workshop owner.\n    */\n  function transferWorkshop(address new_owner) public onlyRole(WORKSHOP_ROLE) {\n    _setupRole(WORKSHOP_ROLE, new_owner);\n    renounceRole(WORKSHOP_ROLE, msg.sender);\n  }\n\n  /** @notice Update the URI for all items in the collection.\n    * @dev Only can be called by the current workshop_owner.\n    * @param _newuri The new metadata URI for all items in the collection.\n    */\n  function changeURI(string memory _newuri) public onlyRole(WORKSHOP_ROLE) {\n    _setURI(_newuri);\n  }\n\n  /** @notice Set the next item available to be claimed for the specified number of blocks.\n    * @dev Only can be called by the current workshop_owner.\n    * @param validForNextBlocks The number of blocks that the next item can be claimed for.\n    */\n  function setNextItem(uint256 validForNextBlocks) public onlyRole(WORKSHOP_ROLE) {\n    require(block.number > _claimableUntil, \"Woah, looks like we've already promised something, gotta wait until that's done.\");\n    _collectionIds.increment();\n    _currentCollectionId = _collectionIds.current();\n    _claimableUntil = block.number + validForNextBlocks;\n  }\n\n  /** @notice Claim the next item if there is one available to claim. The item will be minted to the address of the caller.\n    * @dev An address can only claim an item once, and items cannot be transfered while they have the ability to be claimed.\n    * @return id The collection id of the claimed token.\n    */\n  function claim() public returns (uint256) {\n    require(block.number <= _claimableUntil, \"Currently there is nothing available to claim.\");\n    require(balanceOf(msg.sender, _currentCollectionId) == 0, \"You can only claim one item from a collection.\");\n\n    _mint(msg.sender, _currentCollectionId, 1, \"\");\n    return _currentCollectionId;\n  }\n\n  /** @notice Determine if there is an item that is currently claimable\n    * @return True if there is a collection that's claimable.\n    */\n  function anythingClaimable() public view returns (bool) {\n    return block.number < _claimableUntil;\n  }\n\n  function claimableFor() public view returns (uint256) {\n    if (_claimableUntil > block.number) {\n      return _claimableUntil - block.number;\n    }\n    return 0;\n  }\n\n  function lastClaimableId() public view returns (uint256) {\n    return _currentCollectionId;\n  }\n\n  /** @dev Override hook to make sure that if something is currently claimable, that the currently claimable item cannot be transfered.\n    */\n  function _beforeTokenTransfer(address operator, address from, address to, uint256[] memory ids, uint256[] memory amounts, bytes memory data) internal virtual override(ERC1155Supply, ERC1155) {\n    if (block.number <= _claimableUntil) {\n      if (from != address(0)) // not minting {\n        for (uint256 i=0; i<ids.length; i++) {\n          require(ids[i] != _currentCollectionId, \"Items cannot be transfered while they are currently claimable.\");\n        }\n      }\n    super._beforeTokenTransfer(operator, from, to, ids, amounts, data);\n    }\n  }\n",
  "sourcePath": "/home/joe/Work/Pocket/Projects/PoktWorkshop/PoktWorkshop/contracts/PoktWorkshop.sol",
  "compiler": {
    "name": "solc",
    "version": "0.8.11+commit.d7f03943.Emscripten.clang"
  },
  "schemaVersion": "3.4.3",
  "updatedAt": "2022-02-11T19:07:52.454Z",
  "networkType": "ethereum",
  "devdoc": {
    "author": "blockjoe",
    "details": "At any given time, a single item of the collection has the ability to be claimed. Each address can only claim 1 item. While an item is claimable, it cannot be transfered.",
    "kind": "dev",
    "methods": {
      "anythingClaimable()": {
        "returns": {
          "_0": "True if there is a collection that's claimable."
        }
      },
      "balanceOf(address,uint256)": {
        "details": "See {IERC1155-balanceOf}. Requirements: - `account` cannot be the zero address."
      },
      "balanceOfBatch(address[],uint256[])": {
        "details": "See {IERC1155-balanceOfBatch}. Requirements: - `accounts` and `ids` must have the same length."
      },
      "changeURI(string)": {
        "details": "Only can be called by the current workshop_owner.",
        "params": {
          "_newuri": "The new metadata URI for all items in the collection."
        }
      },
      "claim()": {
        "details": "An address can only claim an item once, and items cannot be transfered while they have the ability to be claimed.",
        "returns": {
          "_0": "id The collection id of the claimed token."
        }
      },
      "constructor": {
        "details": "Initializes the URI and address that can authorize new workshop periods.",
        "params": {
          "_uri": "The URI that corresponds to URI that resolves the metadata",
          "workshop_owner": "The address that has the ability to authorize new workshop items"
        }
      },
      "exists(uint256)": {
        "details": "Indicates whether any token exist with a given id, or not."
      },
      "getRoleAdmin(bytes32)": {
        "details": "Returns the admin role that controls `role`. See {grantRole} and {revokeRole}. To change a role's admin, use {_setRoleAdmin}."
      },
      "getRoleMember(bytes32,uint256)": {
        "details": "Returns one of the accounts that have `role`. `index` must be a value between 0 and {getRoleMemberCount}, non-inclusive. Role bearers are not sorted in any particular way, and their ordering may change at any point. WARNING: When using {getRoleMember} and {getRoleMemberCount}, make sure you perform all queries on the same block. See the following https://forum.openzeppelin.com/t/iterating-over-elements-on-enumerableset-in-openzeppelin-contracts/2296[forum post] for more information."
      },
      "getRoleMemberCount(bytes32)": {
        "details": "Returns the number of accounts that have `role`. Can be used together with {getRoleMember} to enumerate all bearers of a role."
      },
      "grantRole(bytes32,address)": {
        "details": "Grants `role` to `account`. If `account` had not been already granted `role`, emits a {RoleGranted} event. Requirements: - the caller must have ``role``'s admin role."
      },
      "hasRole(bytes32,address)": {
        "details": "Returns `true` if `account` has been granted `role`."
      },
      "isApprovedForAll(address,address)": {
        "details": "See {IERC1155-isApprovedForAll}."
      },
      "renounceRole(bytes32,address)": {
        "details": "Revokes `role` from the calling account. Roles are often managed via {grantRole} and {revokeRole}: this function's purpose is to provide a mechanism for accounts to lose their privileges if they are compromised (such as when a trusted device is misplaced). If the calling account had been revoked `role`, emits a {RoleRevoked} event. Requirements: - the caller must be `account`."
      },
      "revokeRole(bytes32,address)": {
        "details": "Revokes `role` from `account`. If `account` had been granted `role`, emits a {RoleRevoked} event. Requirements: - the caller must have ``role``'s admin role."
      },
      "safeBatchTransferFrom(address,address,uint256[],uint256[],bytes)": {
        "details": "See {IERC1155-safeBatchTransferFrom}."
      },
      "safeTransferFrom(address,address,uint256,uint256,bytes)": {
        "details": "See {IERC1155-safeTransferFrom}."
      },
      "setApprovalForAll(address,bool)": {
        "details": "See {IERC1155-setApprovalForAll}."
      },
      "setNextItem(uint256)": {
        "details": "Only can be called by the current workshop_owner.",
        "params": {
          "validForNextBlocks": "The number of blocks that the next item can be claimed for."
        }
      },
      "totalSupply(uint256)": {
        "details": "Total amount of tokens in with a given id."
      },
      "transferWorkshop(address)": {
        "details": "Only can be called by the current workshop_owner.",
        "params": {
          "new_owner": "The address of the new workshop owner."
        }
      },
      "uri(uint256)": {
        "details": "See {IERC1155MetadataURI-uri}. This implementation returns the same URI for *all* token types. It relies on the token type ID substitution mechanism https://eips.ethereum.org/EIPS/eip-1155#metadata[defined in the EIP]. Clients calling this function must replace the `\\{id\\}` substring with the actual token type ID."
      }
    },
    "title": "Pokt Workshop",
    "version": 1
  },
  "userdoc": {
    "kind": "user",
    "methods": {
      "anythingClaimable()": {
        "notice": "Determine if there is an item that is currently claimable"
      },
      "changeURI(string)": {
        "notice": "Update the URI for all items in the collection."
      },
      "claim()": {
        "notice": "Claim the next item if there is one available to claim. The item will be minted to the address of the caller."
      },
      "setNextItem(uint256)": {
        "notice": "Set the next item available to be claimed for the specified number of blocks."
      },
      "transferWorkshop(address)": {
        "notice": "Transfer the contract of the workshop owner role to a new contract."
      }
    },
    "notice": "An ERC-1155 that allows for developers participating in build workshops to claim a collection item by following along.",
    "version": 1
  }
}